:100000000C9434000C943E000C943E000C943E0082
:100010000C943E000C943E000C943E000C943E0068
:100020000C943E000C943E000C943E000C943E0058
:100030000C943E000C943E000C943E000C943E0048
:100040000C943E000C943E000C943E000C943E0038
:100050000C943E000C943E000C943E000C943E0028
:100060000C943E000C943E0011241FBECFEFD8E04C
:10007000DEBFCDBF0E94E4000C94FC000C94000095
:10008000209A28985098589A5198599A0895ECE7D0
:10009000F0E0808180648083EAE7F0E08081876817
:1000A0008083089590917C00987F90937C0090913C
:1000B0007C008770892B80937C0080917A0080641B
:1000C00080937A0080917A0084FFFCCF80917A003F
:1000D0002091780030917900C9010895E0E8F0E0BE
:1000E000808183688083E1E8F0E080818B60808399
:1000F000219A08959C01823D9105A0F48DEC90E039
:10010000909389008093880020E030E040E951E03E
:10011000CA010197F1F72F5F3F4F283C3105C1F726
:1001200084E10895825D90408C529140A0F48AE968
:1001300091E0909389008093880020E030E040E9CE
:1001400051E0CA010197F1F72F5F3F4F283C31057D
:10015000C1F789E10895C9018E5F9140883C9105FE
:10016000A0F48DEC92E0909389008093880020E0C9
:1001700030E040E951E0CA010197F1F72F5F3F4FAE
:10018000283C3105C1F78DE10895265C32402B53A0
:100190003140A0F48DEC93E0909389008093880027
:1001A00020E030E040E951E0CA010197F1F72F5F0C
:1001B0003F4F283C3105C1F781E208951092890034
:1001C0001092880080E008950E9440000E9447003D
:1001D0000E946E0049990AC04899FCCF289A80E095
:1001E0000E9452000E947A00499BF6CF28981092F4
:0C01F000890010928800EECFF894FFCF39
:00000001FF
